:020000040800F2
:1000000068480020E9020008B7240008711F0008B2
:10001000B5240008F5060008252C000800000000A3
:10002000000000000000000000000000290200089D
:10003000F706000800000000850200088D25000872
:100040000303000803030008030300080303000878
:100050000303000803030008030300080303000868
:100060000303000803030008030300080303000858
:100070000303000803030008030300080303000848
:100080000303000803030008030300080303000838
:100090000303000803030008030300080303000828
:1000A0000303000803030008030300080303000818
:1000B000030300085926000803030008030300088F
:1000C00003030008030300080303000803030008F8
:1000D000030300080D2C000803030008192C000876
:1000E00003030008030300080303000803030008D8
:1000F00003030008030300080303000803030008C8
:1001000003030008030300080303000803030008B7
:100110000303000803030008030300086526000822
:100120000303000803030008030300080303000897
:100130000303000803030008030300080303000887
:100140000303000803030008030300080303000877
:100150000303000803030008030300080303000867
:100160000303000803030008030300080303000857
:100170000303000803030008030300080000000055
:10018000030300080303000800F002F800F03CF845
:100190000AA090E8000C82448344AAF10107DA45E2
:1001A00001D100F031F8AFF2090EBAE80F0013F0F8
:1001B000010F18BFFB1A43F001031847783D0000F8
:1001C000983D0000103A24BF78C878C1FAD8520789
:1001D00024BF30C830C144BF04680C6070470000C1
:1001E0000023002400250026103A28BF78C1FBD840
:1001F000520728BF30C148BF0B6070471FB503F0DE
:10020000B9FD1FBD10B510BD00F0A6F91146FFF7EE
:10021000F5FF02F047FD00F0C4F903B4FFF7F2FF69
:1002200003BC00F0CBF900002C4B19680868B0E85B
:10023000F04F80F30988BFF36F8F4FF0000080F319
:10024000118870470000000008480068006880F3CB
:1002500008884FF0000080F3148862B661B6BFF3DF
:100260004F8FBFF36F8F00DF00BF00BF08ED00E0CE
:10027000DFF80C00016841F470010160704700BFB5
:1002800088ED00E0EFF30980BFF36F8F134B1A681E
:100290001EF0100F08BF20ED108A20E9F04F10600B
:1002A00009B44FF0500080F31188BFF34F8FBFF3B4
:1002B0006F8F03F081F94FF0000080F3118809BCC3
:1002C00019680868B0E8F04F1EF0100F08BFB0ECD6
:1002D000108A80F30988BFF36F8F704740000020B9
:1002E000EFF3058070470000094880470948004740
:1002F000FEE7FEE7FEE7FEE7FEE7FEE7FEE7FEE7D6
:10030000FEE7FEE704480549054A064B7047000032
:10031000492600088901000868420020684800203A
:10032000684400206844002053EA020C00F0698011
:100330002DE9F04B4FF00006002B1FBFB3FA83F5F9
:1003400003FA05F424FA05F65E4012BF1643B2FA2A
:1003500082F502FA05F4C5F120051EBF22FA05FC5C
:1003600044EA0C04203556EA044C4FEA144418BF02
:10037000641C4FF000084FF00009904271EB030C31
:1003800039D3002919BFB1FA81F701FA07F6B0FA9B
:1003900080F700FA07F6C7F120071EBF20FA07FC16
:1003A00046EA0C062037B6FBF4FCA7EB0507103F26
:1003B00007F01F0BCBF120060CFA0BFB2CFA06F60C
:1003C00044BFB3460026202FA4BF5E464FF0000B6B
:1003D0005BEA060C08BF4FF0010B19EB0B09ABFBF6
:1003E000027C48EB0608C01B06FB02CC0BFB03CCCF
:1003F00071EB0C01C1E70B46024641464846BDE899
:10040000F08B13B54FF000004FF00001AFF3008008
:10041000BDE81C407047032A40F2308010F0030C06
:1004200000F0158011F8013BBCF1020F624498BF47
:1004300011F801CB00F8013B38BF11F8013BA2F1E4
:10044000040298BF00F801CB38BF00F8013B11F05F
:10045000030300F02580083AC0F0088051F8043BFF
:10046000083A51F804CBA0E80810F5E7121D5CBF6C
:1004700051F8043B40F8043BAFF30080D20724BF9F
:1004800011F8013B11F801CB48BF11F8012B24BF33
:1004900000F8013B00F801CB48BF00F8012B704782
:1004A00010B5203AC0F00B80B1E81850203AA0E80F
:1004B0001850B1E81850A0E81850BFF4F5AF5FEA43
:1004C000027C24BFB1E81850A0E8185044BF18C9F6
:1004D00018C0BDE810405FEA827C24BF51F8043B9D
:1004E00040F8043B08BF7047D20728BF31F8023BF1
:1004F00048BF11F8012B28BF20F8023B48BF00F885
:10050000012B70474FF0000200B513469446964603
:10051000203922BFA0E80C50A0E80C50B1F1200116
:10052000BFF4F7AF090728BFA0E80C5048BF0CC0C4
:100530005DF804EB890028BF40F8042B08BF704722
:1005400048BF20F8022B11F0804F18BF00F8012B94
:100550007047704770477047754600F02BF8AE46FD
:1005600005006946534620F00700854618B020B5BF
:10057000FFF7C8FEBDE820404FF000064FF000072F
:100580004FF000084FF0000B21F00701AC46ACE83B
:10059000C009ACE8C009ACE8C009ACE8C0098D46A8
:1005A000704710B50446AFF300802046BDE8104008
:1005B000FFF733BE00487047084200200149182069
:1005C000ABBEFEE72600020070470000464910B5AA
:1005D0004A6822F440324A604A6843681A434A60D3
:1005E00001684A6822F480724A6001684A680369B7
:1005F00042EA03224A6001684A6822F040724A6077
:1006000001684A6883681A434A6001688A6822F46C
:1006100000628A6001688A68C3681A438A60816AD6
:100620006FF07062D14201688A6822F070628A605D
:1006300001688A680CD0836A1A438A6001688A68F4
:1006400022F040528A6001688A68C36A1A4301E056
:1006500022F040528A6001688A6822F002028A60B1
:1006600001688A68037E42EA43028A6090F820109B
:10067000002901684A680FD042F400624A600168AC
:100680004A6822F460424A6001684A68174C436A2B
:1006900004EB43331A4301E022F400624A6001682C
:1006A000CA6A22F47002CA620168CA6A838B104C5B
:1006B00004EB03531A43CA6201688A6822F4007289
:1006C0008A6001688A6890F8303042EA43228A6082
:1006D00001688A6822F480628A6001688A684069D9
:1006E00042EA8020886010BD0023014000E0FFFF47
:1006F0000000F0FFFEE7704772B6FEE778B5002411
:10070000009490F83C20012A19D0012280F83C2066
:100710000A6807230568092A13D9EE680A3A02EB2A
:10072000420293409E43EE600B788A680A3B03EBDB
:1007300043039A400368DD682A43DA6010E0022030
:1007400078BD2E6902EB420293409E432E610B78E6
:100750008A6803EB43039A4003681D692A431A61C0
:100760004A681F23072A13D205686E6B521E02EBDC
:10077000820293409E436E630B790A885B1E92B29D
:1007800003EB83039A4003685D6B2A435A6327E0B7
:1007900005680D2A12D22E6BD21F02EB8202934003
:1007A0009E432E630B790A88DB1F92B203EB83030F
:1007B0009A4003681D6B2A431A6311E0EE6A0D3AF2
:1007C00002EB820293409E43EE620B790A880D3B56
:1007D00092B203EB83039A400368DD6A2A43DA622C
:1007E000164B0568144A9D4206D10D68122D03D19F
:1007F000556845F48005556005689D4218D10B6821
:10080000102B01D0112B13D1536843F40003536014
:10081000096810290CD10A490A4A0968B1FBF2F1AA
:1008200001EB8101490000E0491E00910029FBD144
:1008300080F83C40002078BD0023014000200140AA
:100840003C00002040420F0070B504004FF000054E
:1008500003D0206C002610B107E0012070BD2046B7
:1008600000F01CF8666484F83C60206CC00610D46C
:10087000206C20F4885040F0020020642046FFF7EE
:10088000A5FE6664206C20F0020040F001002064A8
:1008900000E0012584F83C60284670BD10B586B0A4
:1008A000044614216846FFF72DFE1149206888424E
:1008B0001CD110480021026842F480620260006886
:1008C00000F4806005900B481438026842F0200262
:1008D0000260006800F02000059080200090032056
:1008E000CDE901016946044800F0E2F806B010BD08
:1008F00000220140443802400014024070B500B3A9
:10090000F9B14379012B1ED00126467102230371F0
:1009100005682C6802F0100340F6FE729A4094437A
:10092000D1E900210A439A4022432A6001680A68FB
:10093000C0249C40A2430A60067100214171084610
:1009400070BD012070BD022070BD70B5040003D0E1
:100950002079002510B105E0012070BD65712046A9
:1009600000F008F80220207125610120207100208C
:1009700070BD000010B586B0044614216846FFF72C
:10098000C1FD1149206888421CD11048002102682D
:1009900042F000520260006800F0005005900B48E1
:1009A0001038026842F001020260006800F00100A5
:1009B0000590102000900320CDE90101694604480C
:1009C00000F076F806B010BD0074004040380240D8
:1009D000000002402DE9F0410446876D00F072F9F5
:1009E000064694F835000025022806D08020606570
:1009F00084F834500120BDE8F0812068016821F0BE
:100A0000160101602068416921F080014161206C7C
:100A100008B9A06C20B12068016821F008010160CC
:100A20002068016821F0010101600CE000F04AF942
:100A3000801B052807D920206065032084F8350035
:100A400084F83450D7E720680068C007EED194F8E6
:100A50005C103F208840B860012084F8350084F89D
:100A600034500020C7E790F83510022903D08021C8
:100A7000416501207047052180F835100068016844
:100A800021F00101016000207047000070B50446AC
:100A900000F018F90546601C02D0044800780444B0
:100AA00000F010F9401BA042FAD370BD30000020C6
:100AB0002DE9F84FDFF8BCA10022012503264FF0F5
:100AC0000F090AF1040BAAF1040E00BF0B6805FA26
:100AD00002F42340A34270D10F7907F00307012FDE
:100AE00001D0022F16D187684FEA420806FA08FCA7
:100AF00027EA0C07D1F80CC00CFA08FC4CEA070CEA
:100B0000C0F808C04768A7430C79C4F300149440A8
:100B10003C4344600C79E443A4070AD0C4684FEA1C
:100B2000420C06FA0CF7BC438F6807FA0CF7274310
:100B3000C7600C7904F00304022C12D1D40800EB36
:100B4000840CDCF820405707FF0E09FA07F824EA66
:100B50000804D1F8108008FA07F848EA0408CCF82D
:100B6000208004684FEA420C06FA0CF7BC430F7968
:100B700007F0030707FA0CF7274307604C6814F4E3
:100B8000403F70D03C4C276847F48047276024687A
:100B900022F0030704F480440094384C07EB040C63
:100BA000DCF8084897074FEA177809FA08F7BC43BA
:100BB000334FB84202D1002724E054E0314FB8420D
:100BC00001D101271EE0304FB84201D1022719E0C0
:100BD0002E4FB84201D1032714E02D4FB84201D166
:100BE00004270FE02B4FB84201D105270AE02A4F16
:100BF000B84201D1062705E0284FB84201D10727A6
:100C000000E0082707FA08F72743CCF80878DAF855
:100C100000405746D1F804C09C435FEACC2C00D575
:100C20001C433C60DBF800405F46D1F804C09C43A5
:100C30005FEA8C2C00D51C433C60DEF80040774610
:100C4000D1F804C09C435FEA8C3C00D51C433C6057
:100C5000084F083F3C68D1F804C09C435FEACC3C95
:100C600000D51C433C60521C102AFFF42FAFBDE896
:100C7000F88F0000083C0140443802400030014039
:100C8000000002400004024000080240000C024044
:100C9000001002400014024000180240001C0240F4
:100CA0000069084000D001207047426921EA020330
:100CB0000A4043EA0241816170470AB1816170478D
:100CC0000904FBE7014880687047000030000020FD
:100CD000024881680278114481607047300000202A
:100CE0000B4810B5016841F400710160016841F4DE
:100CF00080610160016841F480710160032000F0AF
:100D00009FF80F2000F006F800F050F8002010BD0A
:100D1000003C024030B505461F4887B000240168FA
:100D200041F020010160006806A900F02000009059
:100D300001A800F031F90498A8B100F04DF9400085
:100D40001649174AB0FBF1F11648491E026040F2FD
:100D5000E732C0E90324C0E90114846100F08CFB90
:100D6000040003D015E000F037F9E9E70D4800F082
:100D700005FC04000DD1372000F034F8102D07D207
:100D800000222946372000F03BF80748056000E0C4
:100D9000012407B0204630BD4038024040420F00D9
:100DA00000140040D0040020340000200C4882B021
:100DB000016841F480410160006800F480400090C7
:100DC0000748001F016841F080510160006800225F
:100DD00000F0805000900F21901E02B000F010B87B
:100DE00044380240002809DB00F01F020121914035
:100DF0004009800000F1E020C0F8001170470000B9
:100E0000F0B40E4B1B680C46C3F30223C3F1070575
:100E1000042D00D90425191D072901D2002300E063
:100E2000DB1E012606FA05F1491E214099409E402D
:100E3000761E16403143F0BC01F0F5BE0CED00E02B
:100E4000064900F0070208684FF6FF03184040EA21
:100E50000220034A10430860704700000CED00E0D8
:100E60000000FA052DE9F0470E46050065D0DFF8D1
:100E70001481D8F80000F7B200F00700B04207D2A2
:100E800088F80070D8F8000000F00700B04254D194
:100E900028683D4C810712D5400703D5206840F4EF
:100EA000E05020602878000703D5206840F46040B7
:100EB00020602068A96820F0F000084320602878AE
:100EC000C0072DD0304968680839012812D002289F
:100ED00013D0032811D00968890700292DDA216869
:100EE00021F0030101432160FFF7ECFE814641F24E
:100EF000883A0EE009688903EFE709688901ECE7A1
:100F0000FFF7E0FEA0EB0901514502D90320BDE83F
:100F1000F0872068696800F00C00B0EB810FEFD11A
:100F2000D8F80010404601F00701B14207D9077018
:100F3000006800F00700B04201D00120E7E7287800
:100F4000400705D52068E96820F4E0500843206098
:100F50002878000706D52068296920F4604040EA17
:100F6000C100206000F058F82168084AC1F303115D
:100F7000515CC8400649086006480068FFF7CAFE91
:100F80000020C4E7003C024008380240983E0008B8
:100F90003C000020340000200F2202600C4A13683D
:100FA00003F003034360136803F0F00383601368E6
:100FB00003F4E053C36012684FF4E05303EAD20233
:100FC00002610448006800F00700086070470000F4
:100FD00008380240003C024004480549006809689E
:100FE000044AC1F38221515CC84070473C00002094
:100FF00008380240A83E000804480549006809680E
:10100000044AC1F34231515CC84070473C000020A3
:1010100008380240A83E0008154810B5006810F0D6
:101020000C02144813D04110042A0FD0082A0ED104
:101030000F4C241F2268236802F03F025B0207D591
:101040002068C0F38810A0FB010106E0084610BD2F
:101050002168C1F38811A1FB00010023FFF764F9A7
:101060002168C1F30141491C4900B0FBF1F010BDFA
:10107000083802400024F4002DE9F84F04006ED037
:101080002078DFF84C93C007A9F104054AD009F194
:1010900004000168C1F38101012908D00068C0F390
:1010A000810002280AD1D9F80000400206D528683C
:1010B000800337D560680028E1D033E06068B0F580
:1010C000803F10D0B0F5A02F286810D020F48030D9
:1010D0002860286820F4802028606068A8B1FFF7A5
:1010E000F1FD06460DE0286840F48030F4E740F456
:1010F00080202860F7E700BFFFF7E4FD801B64282D
:1011000073D828688003F7D50CE0FFF7DBFD0646AF
:1011100005E000BFFFF7D6FD801B6428F0D82868E3
:101120008003F7D42078DFF8AC8280074FF0000A04
:101130003ED5A748001D016811F00C0F08D00068CB
:10114000C0F3810002280BD1D9F80000400207D477
:101150002868800716D5E068012800D112E033E145
:10116000E068B8B10120C8F80000FFF7ABFD064603
:1011700005E000BFFFF7A6FD801B0228C0D8286845
:101180008007F7D52868216920F0F80040EAC100FF
:1011900028600DE0C8F800A0FFF794FD064604E0C3
:1011A000FFF790FD801B02281FD828688007F7D41E
:1011B0002078000722D5864F87486169703771B162
:1011C00001210160FFF77EFD064604E0FFF77AFD8E
:1011D000801B022809D838688007F7D50EE0C0F8D0
:1011E00000A0FFF76FFD064605E082E0FFF76AFD0D
:1011F000801B02287DD838688007F7D42078400704
:1012000068D5DFF8CCB100270BF13C0BDBF8000010
:10121000C0000BD4DBF8001041F08051CBF8001077
:10122000DBF80000012700F0805000906B4E306822
:10123000C00510D4306840F480703060FFF742FD84
:10124000009005E0FFF73EFD0099401A022850D8B3
:101250003068C005F6D55E4EA0686C3601280FD008
:101260000528306810D020F001003060306820F090
:1012700004003060A068B8B1FFF724FD00900FE0D3
:10128000306840F00100F4E740F004003060F7E718
:10129000FFF718FD0099411A41F28830814266D863
:1012A00030688007F4D50EE0FFF70CFD009007E0F2
:1012B000FFF708FD0099411A41F28830814256D863
:1012C00030688007F4D42FB1DBF8001021F0805192
:1012D000CBF80010A069C8B33D49091D0968C1F3E6
:1012E000810102294AD00228504607D0C8F8600080
:1012F00000E03CE0FFF7E6FC04463BE04746C8F868
:101300006000FFF7DFFC064605E000BFFFF7DAFCF0
:10131000801B02282BD828688001F7D4D4E9070164
:101320000843A16A2E4A490802EB0141626A41EA78
:101330008211084394F82C1040EA0161C9F80010AA
:1013400001203866FFF7BEFC044606E03EE000BF21
:10135000FFF7B8FC001B022809D828688001F7D5E0
:1013600034E000BFFFF7AEFC001B022802D90320C7
:10137000BDE8F88F28688001F4D427E00128F7D071
:10138000D9F80000E26900F4800191421CD1226A80
:1013900000F03F01914217D147F6C071626A0140E7
:1013A000B1EB821F10D1A26A4FF0FF3300F440313D
:1013B00003EB5202B1EB024F06D194F82C1000F06F
:1013C0007060B0EB016F01D00120D1E70020CFE7C2
:1013D0000438024000004742800E4742007000403F
:1013E0000000FFFF7047704770B590F83C20012A5D
:1013F00032D0012480F83C40022280F83D2003686E
:101400005A689D6822F070060A6832435A60134B8E
:1014100002689A4214D0B2F1804F11D0104B9A4218
:101420000ED0104B9A420BD00F4B9A4208D00F4B64
:101430009A4205D00E4B9A4202D00E4B9A4204D1EA
:10144000496825F080031943916080F83D400021F0
:1014500080F83C10084670BD022070BD00000140BD
:101460000004004000080040000C0040000401405F
:10147000004001400018004010B5040003D094F86B
:101480003D0010B107E0012010BD002084F83C00B1
:10149000204600F01FF8022084F83D00211D20683E
:1014A00001F0E6F8012084F8460084F83E0084F854
:1014B0003F0084F8400084F8410084F8420084F83A
:1014C000430084F8440084F8450084F83D0000207F
:1014D00010BD000010B586B0044614216846FFF721
:1014E00011F8216800222148B1F1804F29D0204B0A
:1014F00099422ED1016841F002010160006800F0BC
:101500000200059019481038016841F0020101609D
:101510000068694600F0020005901020009002204B
:10152000CDE90202019004901248FFF7C1FA0022AF
:1015300005211D20FFF764FC1D20FFF753FC06B0BA
:1015400010BD016841F001010160006800F0010078
:1015500009E0094A9142F2D1016841F004010160B9
:10156000006800F004000590E9E700004038024000
:1015700000040040000402400008004090F83D10C4
:10158000012901D001207047022180F83D10016837
:10159000CA6842F00102CA6000681149884214D04A
:1015A000B0F1804F11D00F4988420ED00E498842C9
:1015B0000BD00E49884208D00D49884205D00D490C
:1015C000884202D00C49884204D1816801F00701A9
:1015D000062903D0016841F0010101600020704735
:1015E000000001400004004000080040000C0040E2
:1015F0000004014000400140001800400168CA6832
:1016000022F00102CA6001680A6A41F211131A420B
:1016100007D10A6A9B101A4203D10A6822F001021C
:101620000A60012180F83D100020704770B5044623
:1016300090F83C000025012817D0012684F83C6072
:10164000022084F83D002068826822F0770222F4AC
:101650007F4282600868502838D00DDC20284FD0A7
:1016600005DC90B3102811D14AE0022070BD30286B
:1016700046D040280AD13BE060282FD070280DD0FA
:10168000B0F5805F03D0B0F5005F12D0012584F87B
:101690003D60002084F83C00284670BDCB68D1E94D
:1016A0000121206801F05DF82068816841F0770130
:1016B00009E0CB68D1E90121206801F052F82068E7
:1016C000816841F480418160E1E719E0CA684968B6
:1016D000206801F061F95021206806E0CA68496875
:1016E000206801F06AF96021206801F044F8CEE733
:1016F000CA684968206801F04FF940212068F4E782
:10170000226801461046F0E770472DE9F041044693
:101710000068C66805694FF00007A90713D5B1072F
:1017200011D5F91E016101202077206880698007AA
:10173000204602D0FFF7E8FF04E000F0BBF82046A7
:1017400000F04DF92777680716D5700714D5216882
:101750006FF004000861022020772068806910F48F
:10176000407F204602D0FFF7CFFF04E000F0A2F850
:10177000204600F034F92777280715D5300713D510
:1017800021686FF008000861042020772068C06994
:101790008007204602D0FFF7B7FF04E000F08AF888
:1017A000204600F01CF92777E80616D5F00614D578
:1017B00021686FF010000861082020772068C06958
:1017C00010F4407F204602D0FFF79EFF04E000F0B7
:1017D00071F8204600F003F92777E80708D0F007F2
:1017E00006D021686FF001000861204600F09AF9E8
:1017F000280608D5300606D521686FF080000861FC
:101800002046FFF7EFFD680608D5700606D521686B
:101810006FF040000861204600F0D3F9A8060AD511
:10182000B00608D521686FF0200008612046BDE8A9
:10183000F041FFF7D8BDBDE8F081000030B587B0BA
:10184000044614216846FEF75DFE24680023164A0C
:1018500002211648B4F1804F15D0154DAC4210D17D
:10186000146844F002041460126802F00202059247
:1018700040220092CDE90113CDE903316946FFF71B
:1018800017F907B030BD136843F002031360126804
:10189000029102F0020205924FF48162CDE900212B
:1018A000039101210491E9E730380240000402402D
:1018B00000080040704770B5044690F83C000026D0
:1018C0000D4601280FD0012084F83C006AB1042A9B
:1018D0001DD0082A2FD00C2A3FD00126002084F8E2
:1018E0003C00304670BD022070BD206800F04CFF07
:1018F0002068816941F0080181612068816921F0D7
:1019000004018161206881692A69114311E020681E
:1019100000F06AFF2068816941F4006181612068FC
:10192000816921F480618161206881692A6941EAC5
:1019300002218161D2E7206800F08CFF2068C16934
:1019400041F00801C1612068C16921F00401C16151
:101950002068C1692A69114311E0206800F0AEFFD8
:101960002068C16941F40061C1612068C16921F446
:101970008061C1612068C1692A6941EA0221C161AF
:10198000ACE710B5040003D094F83D0010B107E0B7
:10199000012010BD002084F83C00204600F01EF815
:1019A000022084F83D00211D206800F061FE012026
:1019B00084F8460084F83E0084F83F0084F8400034
:1019C00084F8410084F8420084F8430084F844001D
:1019D00084F8450084F83D00002010BD7047704732
:1019E00010B50446022249B104290ED0082913D0AB
:1019F00094F84100012816D0012010BD94F83E0053
:101A00000128F9D184F83E200FE094F83F00012826
:101A1000F2D184F83F2008E094F840000128EBD18F
:101A200084F8402001E084F841200122206800F081
:101A30008BFE16492068164A884201D0904203D195
:101A4000436C43F4004343642068884213D0B0F1F0
:101A5000804F10D00F4988420DD00F4988420AD0DC
:101A60000E49884207D0904205D00D49884202D0E5
:101A70000C49884204D1816801F00701062903D08E
:101A8000016841F001010160002010BD000001402B
:101A9000000401400004004000080040000C004029
:101AA000004001400018004030B504460D46006873
:101AB000002200F049FE194B41F2111120688A10F2
:101AC000984202D0164B984209D1036A0B4206D1C4
:101AD000036A134203D1436C23F400434364206838
:101AE000036A0B4206D1016A114203D1016821F059
:101AF0000101016001203DB1042D08D0082D09D05D
:101B000084F84100002030BD84F83E00FAE784F8F4
:101B10003F00F7E784F84000F4E7000000000140D0
:101B20000004014010B5044600680D49884201D107
:101B3000FFF7CEF80B48844210D100680169C94311
:101B400049070BD46FF00401016108210648FFF733
:101B5000ABFFBDE810400348FFF750BD10BD0000CB
:101B600000140040B00300206803002070B5044654
:101B700090F83C00012812D0012584F83C50022046
:101B800084F83D00204600F0C1FE01004FF0000047
:101B900007D084F83D5084F83C00012070BD02203D
:101BA00070BD2168CA6822F04002CA602168CA6814
:101BB00022F48042CA6084F83D5084F83C00002042
:101BC00070BD704770477047F8B5016804460868F3
:101BD000CA684B6910F00F0F4FF0000559D003F0A1
:101BE000010602F49077374365D0C10705D0D105CF
:101BF00003D5616C41F001016164410705D5D90746
:101C000003D0616C41F002016164810705D5D907F9
:101C100003D0616C41F004016164010707D502F053
:101C20002001314303D0616C41F008016164616CB3
:101C300000293AD0800604D5900602D5204600F04F
:101C4000FDFE20684069616CC0F38010090700D474
:101C500060B3204600F0CBFE20684069400621D5E5
:101C60002068143050E8001F21F0400140E80012C5
:101C7000002AF5D1E06BA8B16E490165E06BFEF773
:101C8000F2FE002811D0E06B016D01B0BDE8F0401C
:101C9000084783060FD593060DD52046BDE8F840CA
:101CA00000F0CCBE2046FFF78EFFF8BD2046FFF7C0
:101CB0008AFF6564F8BD266B2023012E7DD1C60600
:101CC0007BD5D60679D508684868009048694FF0FA
:101CD0000206400641D5E16B086840680004000C2C
:101CE000E8D0A28D8242E5D9E085C869B0F5807F51
:101CF0002DD020680C3050E8001F21F4807140E89E
:101D00000012002AF5D12068143050E8001F21F09D
:101D1000010140E80012002AF5D12068143050E893
:101D2000001F21F0400140E80012002AF5D184F89C
:101D30004230256320680C3050E8001F21F010016C
:101D400040E80012002AF5D1E06BFEF743FE66631F
:101D5000A08DE18D401A81B22AE0A08DE18D401A5C
:101D600081B2E08D0028A5D00029A3D022680C32D2
:101D700052E8000F20F4907042E80007002FF5D1E0
:101D80002068143050E8002F22F0010240E80027BC
:101D9000002FF5D184F84230256320680C3050E8DC
:101DA000002F22F0100240E80023002BF5D16663DB
:101DB0002046FFF707FFF8BDFFE705062BD5150600
:101DC00029D594F841002128F5D1A068B0F5805FAD
:101DD00001D12069B0B1206A411C216221680078DC
:101DE0004860E08C401E0004000CE084E3D12068D1
:101DF000C16821F08001C1602068C16841F04001E4
:101E0000C160D8E7206A0088C0F308004860206AF3
:101E1000801C2062E5E74006CDD55006CBD5CA68C8
:101E2000204622F04002CA6084F8413000F09FF85A
:101E3000C1E70000DF29000870B5040004D094F861
:101E40004100002510B106E0012070BD84F840502B
:101E5000204600F023F8242084F841002068C1685F
:101E600021F40051C160204600F04AFE206801695B
:101E700021F4904101612068416921F02A0141610A
:101E80002068C16841F40051C1606564202084F875
:101E9000410084F842006563002070BD70B586B0D3
:101EA000044614216846FEF72DFB2B4E22680021C4
:101EB0002A48022303240725B24222D1274A14329A
:101EC000166846F010061660126802F010020592BD
:101ED000026842F001020260006802AA00F00100FC
:101EE000059082E832006002CDE9000369461C4893
:101EF000FEF7DEFD002205212520FEF781FF2520CB
:101F000025E0184EB24224D1144A1032166846F425
:101F100080261660126802F480220592026842F060
:101F200008020260006802AA00F00800059082E83A
:101F300032004FF44070CDE9000369460A48FEF7CD
:101F4000B7FD002205212720FEF75AFF2720FEF7C4
:101F500049FF06B070BD000000100140303802405B
:101F60000000024000480040000C024070477047EB
:101F7000FEE700001FB50021154800910191029174
:101F8000124A039102604FF40032C0E9012101249A
:101F90000161047680F820100E4AC0E90A21C4616C
:101FA000C16080F830104461FEF74EFC08B1FEF7C6
:101FB000A3FB0520CDE90004694605480294FEF71D
:101FC0009DFB002801D0FEF797FB1FBD00220140BA
:101FD0000C0300200100000F1CB500240C490094E4
:101FE0000A48019408600846FEF7AFFC08B1FEF706
:101FF00083FB00940022694605480194FEF77EFCAD
:10200000002801D0FEF778FB1CBD000000740040E2
:102010005403002030B5CBB000254695012146A8D9
:10202000479500F08BFE3C4C0121A062489548A8E2
:10203000499500F083FEE0621C2238496846FEF7AD
:102040002FFA0021684600F098FE344920601C22D7
:102050001C3107A8FEF724FA002107A800F08DFE26
:102060002E4960601C2238310EA8FEF719FA0021B3
:102070000EA800F082FE2949A0601C22543115A848
:10208000FEF70EFA002115A800F077FE2349E06064
:102090001C2270311CA8FEF703FA00211CA800F0D6
:1020A0006CFE1E4920611C228C3123A8FEF7F8F932
:1020B000002123A800F061FE184960611C22A831AC
:1020C0002AA8FEF7EDF900212AA800F056FE1349D0
:1020D000A0611C22C43131A8FEF7E2F9002131A829
:1020E00000F04BFE0D49E0611C22E03138A8FEF7FC
:1020F000D7F9002138A800F040FE084920621C22D0
:10210000FC313FA8FEF7CCF900213FA800F035FED6
:1021100060624BB030BD000000000020803D000830
:102120002DE9F04F87B014216846FEF7EBF95148CE
:102130000026016841F020010160016801F02001E2
:102140000591016841F080010160016801F08001A2
:102150000591016841F001010160016801F0010190
:102160000591016841F010010160016801F0100162
:102170000591016841F002010160016801F002016E
:102180000591016841F008010160016801F0080152
:102190000591016841F040010160016801F04001D2
:1021A0000591016841F0040101600068DFF8C89002
:1021B00000F004004FF4C054059000222146484628
:1021C000FEF77BFDDFF8B4A04FF400580022414633
:1021D0005046FEF772FDDFF8A8B04FF4006700220A
:1021E00039465846FEF769FD002239462548FEF774
:1021F00064FD0125CDE90045022402946946484664
:102200000394FEF755FCCDF80080CDE901546946F2
:1022100050460394FEF74CFC0097CDE90154694603
:1022200058460394FEF744FC4FF01808CDF80080A0
:10223000CDE9016569461448FEF73AFC6002CDE934
:102240000006694602950F48FEF732FC0097CDE97B
:10225000015469460B480394FEF72AFCCDF8008030
:10226000CDE9016569460948FEF722FC07B0BDE8E3
:10227000F08F00003038024000140240001002408D
:10228000000402400008024000180240000C024016
:1022900030B58DB000240794089409940A940B94E7
:1022A0001C2168460C94FEF72DF925484FF080411B
:1022B0008025016041F61F41C0E9011440F2E73179
:1022C0008561C0E90314FFF7D7F808B1FEF714FAE7
:1022D0004FF48050079007A91948FFF7A7F908B1F4
:1022E000FEF70AFA1648FFF74CFB08B1FEF704FAAE
:1022F0002020CDE90B050BA91148FFF775F808B1AF
:10230000FEF7FAF96020CDE9000402940422694640
:102310000B480494FFF7CFFA08B1FEF7EDF9082255
:1023200069460748FFF7C7FA08B1FEF7E5F9082143
:102330000348FFF755FB0248FFF780FA0DB030BDA8
:102340006803002010B588B014216846FEF7DAF85B
:1023500000241548059413490694C0E900144FF66B
:10236000FF71C0E9024104618461FFF785F808B19B
:10237000FEF7C2F9072000901020019069460A4834
:10238000FFF7F4FB08B1FEF7B7F9059405A9064875
:102390000694FFF729F8002801D0FEF7ADF908B040
:1023A00010BD000000040040B003002010B58EB046
:1023B00000240794089409940A940B941C216846FD
:1023C0000C94FEF79FF81E481C4901604721C0E9A4
:1023D00001144FF47A71C0E903148461FFF74CF8DB
:1023E00008B1FEF789F94FF48050079007A9144807
:1023F000FFF71CF908B1FEF77FF91148FFF7C1FAA2
:1024000008B1FEF779F90B940BA90D480C94FEF76F
:10241000EBFF08B1FEF770F96020CDE900040294EB
:102420000022694606480494FFF745FA08B1FEF712
:1024300063F90348FFF702FA0EB010BD0008004030
:10244000F80300200C4810B50A4901604FF4E1314F
:102450004160002181600C22C160C0E904128161E9
:10246000C161FFF7E9FC002803D0BDE81040FEF78A
:1024700043B910BD00100140400400200C4810B5C5
:102480000A4901604FF4E1314160002181600C2272
:10249000C160C0E904128161C161FFF7CDFC002871
:1024A00003D0BDE81040FEF727B910BD004800403A
:1024B00088040020FEE7FEE770B5104D4FF48064FD
:1024C00021462846FEF7ECFB002816D11420FEF723
:1024D000DDFA21462846FEF7E3FB00280DD1214610
:1024E0002846FEF7DDFB0028F9D02846BDE87040FD
:1024F00000224FF40061FEF7E0BB70BD000802400F
:102500004FF49674204600F00DFCFBE7054D4FF4A8
:10251000805421462846FEF7C8FB642000F002FCE8
:10252000F7E70000001402404FF4FA74204600F070
:10253000F9FBFBE7962000F0F5FBFBE7FFF7BCFF9C
:10254000142000F0EFFBF9E7C82000F0EBFBFBE7FD
:102550004FF49674204600F0E5FBFBE7064D4FF480
:1025600000644FF47A7621462846FEF79EFB3046FB
:1025700000F0D8FBF7E700000004024000F064FB25
:10258000FCE7B42000F0CEFBFBE7000010B55020C4
:1025900080F31188BFF34F8FBFF36F8F01F09CFA68
:1025A00018B104494FF080500860002080F3118872
:1025B00010BD000004ED00E030B593B03021684656
:1025C000FDF7A0FF14210CA8FDF79CFF1C48002577
:1025D000016841F080510160006800F08050119066
:1025E0001848016841F4804101600068022400F449
:1025F0008040119001200090000401908001CDE9FD
:10260000064008AA0420482182E813000B9068467F
:10261000FEF732FD08B172B6FEE70CA90F2081E883
:1026200031004FF48050CDE90F0502210CA8FEF7D0
:1026300019FC002801D072B6FEE713B030BD0000CF
:1026400040380240007000400248016841F47001C7
:102650000160704788ED00E00148FFF756B80000C0
:10266000B00300200148FFF750B80000D00400205C
:10267000F0B50268294C2A4D2A4E2B4F2B4B4FF0B8
:10268000804CA04209D0604507D0A84205D0B04296
:1026900003D0B84201D0984204D122F0700E4A68AB
:1026A00042EA0E02A0421BD0604519D0A84217D0C2
:1026B000B04215D0B84213D0984211D01C4DA84258
:1026C0000ED01C4DA8420BD01B4DA84208D01B4D6C
:1026D000A84205D01A4DA84202D01A4DA84203D1F3
:1026E00022F44075CA682A434D6922F080022A43C9
:1026F00002608A68C2620A688262A04201D098427F
:1027000001D109690163012141610169C90703D050
:10271000016921F001010161F0BD000000000140EC
:102720000004004000080040000C0040000401408C
:1027300000400140004401400048014000180040B2
:10274000001C00400020004010B501F01F030121D3
:10275000046A99408C430462016A9A401143016201
:1027600010BD10B5846842EA032224F47F440A4372
:102770002243826010BD826822F070020A4342F058
:102780000701816070470000F0B5036A026A22F019
:102790000102026242688469124E24F073050C68DB
:1027A0002C4323F002058B682B430D4DA84201D02A
:1027B000B04205D123F00807CB683B4323F0040364
:1027C000A84201D0B04205D14D6922F440721543B0
:1027D0008A692A4342608461496841630362F0BDAB
:1027E0000000014000040140F0B5026A036A23F0D2
:1027F00010030362436884690D6824F4E64444EAE4
:1028000005248D6822F0200242EA05120F4D104E79
:10281000A84201D0B04206D1CF6822F0800242EA3D
:10282000071222F04002A84201D0B04207D14D6900
:1028300023F4406343EA85038D6943EA85034360DB
:102840008461496881630262F0BD000000000140BC
:1028500000040140F0B5026A036A23F48073036246
:102860004368C46922F4007224F073050C68124EA8
:102870002C438D6842EA05220E4DA84201D0B04299
:1028800006D1CF6822F4006242EA072222F4806275
:10289000A84201D0B04207D14D6923F4405343EA26
:1028A00005138D6943EA05134360C4614968C16338
:1028B0000262F0BD000001400004014030B5046A2E
:1028C000026A22F4805202624268C3690D6823F4EE
:1028D000E64343EA05238D6824F4005444EA0534B2
:1028E000084DA84202D0084DA84204D14D6922F4F7
:1028F000804242EA85124260C36149680164046211
:1029000030BD0000000001400004014070B50368C4
:1029100000249A6822F070054A682A4322F00705CD
:102920000A682A439A604A6812F00F0F31D11211D7
:10293000082A2ED2DFE802F02E2E2E2E0B2127049D
:102940000B69D1E902210068FFF70BFF22E00A685A
:10295000052A10D00268136A156A25F00105156270
:1029600002689569096925F0F00545EA0111916150
:10297000006803620EE0012070BD0A698968006882
:1029800000F00AF806E00A698968006800F015F8A6
:1029900000E00124204670BD10B5036A046A24F0EB
:1029A00001040462846924F0F00444EA021423F070
:1029B0000A020A438461026210BD10B5036A046A08
:1029C00024F010040462846923F0A00324F470440A
:1029D00044EA023243EA01118261016210BD10B57E
:1029E000806B0021C185C184FFF7EDF810BD01683F
:1029F0000C3151E8002F22F4907241E80023002BA3
:102A0000F5D10168143151E8002F22F0010241E8AC
:102A10000023002BF5D1016B012909D101680C318C
:102A200051E8002F22F0100241E80023002BF5D1DD
:102A3000202180F8421000210163704708B590F80A
:102A40004210222901D0022008BD82684FF4805331
:102A50009A4201D1016921B1816A9A421BD04AB1DF
:102A60000AE00268816A5268C2F308020A80816A39
:102A7000891C08E0026972B10268526802F07F02A4
:102A80000A70816A491C8162C18D491E0904090CC2
:102A9000C18503D01BE002685268F1E70168CA688B
:102AA00022F02002CA600168CA6822F48072CA60FB
:102AB00001684A6922F001024A61202180F842102F
:102AC00000214163026B012A03D0FFF74FFA002077
:102AD00008BD016301680C3151E8002F22F010029B
:102AE00041E80023002BF5D101680A68D20602D51F
:102AF0000A6849680091818DFFF764F8E7E70000F4
:102B000070B5044600680169E26821F44051114340
:102B100001612169A068E2690843616911430843C2
:102B20002168CA6849F20C639A430243CA6020686C
:102B30004169A26921F44071114341613149206822
:102B4000884202D03049884202D1FEF755FA01E0AE
:102B5000FEF742FAE2690023192164253226B2F514
:102B6000004F626828D0A0FB0101930F9200FDF78F
:102B7000DBFB0146B0FBF5F06FF01802504301EBB0
:102B8000800006EB0010B0FBF5F000F0F002B1FBA6
:102B9000F5F002EB0012B1FBF5F06FF018035843AB
:102BA00001EB800006EB0010B0FBF5F000F00F0029
:102BB00021681044886070BDA0FB010192185B4140
:102BC000FDF7B2FB0146B0FBF5F00201B1FBF5F0F9
:102BD0006FF01803584301EB800006EBC000B0FB18
:102BE000F5F000F0F80002EB4002B1FBF5F05843BD
:102BF00001EB800006EBC000B0FBF5F000F0070031
:102C0000D6E7000000100140001401400148FEF723
:102C1000DBBF0000400400200148FEF7D5BF0000E4
:102C200088040020FEE70907090E002804DB00F1F4
:102C3000E02080F80014704700F00F0000F1E02061
:102C400080F8141D7047000010B5134C0821204671
:102C5000FEF726F800281ED11420FDF717FF0821E3
:102C60002046FEF71DF8002815D10C494FF4FA70E4
:102C70000968C863411E0A480268D162C160FEF754
:102C80007DFC08210548FEF7ABFE08212046FEF733
:102C900007F80028F9D010BD001802406803002092
:102CA000B0030020FEF71CF8FFF786FCFFF738FAA8
:102CB000FFF7C8FBFFF7ECFAFFF75CF9FFF7DEFB65
:102CC000FFF740FBFFF788F9FFF770FB0122D40202
:102CD00021460E48FDF7F1FF0D4D01222146284601
:102CE000FDF7EBFF012251030A48FDF7E6FF4FF421
:102CF000FA70FDF7CBFE002221462846FDF7DDFFE6
:102D0000FFF788F900F015F8FEE700000008024020
:102D1000001402400010024001460020842900D027
:102D2000C81C704710B500B9012000F0BBFB0020A3
:102D300010BD10B500F002FC002010BD38B543688E
:102D40004BB1012909D10320002200901146012036
:102D500000F0FBFC38BD012901D0002038BD032262
:102D60000021012000F0D0FC040004D000231A460A
:102D7000194600F061FD204638BD7FB50D4604467A
:102D80004169B0F9080081B1A16971B1FFF7C4FFD1
:102D9000D4E905128DE80700D4E900102B4622691A
:102DA00000F061FE039004B070BDFFF7B5FF03A90A
:102DB000CDE90001208A2B4682B2D4E9001000F050
:102DC00025FE012801D00020EDE70398EBE7000085
:102DD0002DE9F041184C0F460546E6682068001DB5
:102DE00000F098FA38B9206890F82C10012088403B
:102DF000216981432161681C07D137B12168BDE891
:102E0000F0410E48091D00F0C9BA20683544B542AA
:102E10004560216805D2A06BBDE8F041091D00F0B6
:102E2000A5BA606B091D00F0A1FAA06A854200D224
:102E3000A562BDE8F081000040000020F4050020FC
:102E40002DE9F041054600F0B5FA2E4CA068401C73
:102E5000A06020682C4F10B1606940B32DE0256060
:102E6000A068012829D1002606EB860007EB800028
:102E700000F06EFA761C072EF6D323488C3000F053
:102E800067FA2148A03000F063FA1F48B43000F020
:102E90005FFA1D48C83000F05BFA1B48DC3000F0D8
:102EA00057FA19488C3060631430A06305E020683D
:102EB000E96AC06A884200D82560606A401C606286
:102EC000E96A0120226988401043206101EB8100FA
:102ED00007EB8000291D00F061FA00F08BFA6069B1
:102EE00000280CD02068E96AC06A884207D20749E6
:102EF0004FF080500860BFF34F8FBFF36F8FBDE876
:102F0000F0810000400000201805002004ED00E0E2
:102F10002DE9F041856B174604460026026C82B10C
:102F2000C7B1E068FDF777FAE168206C091AE16043
:102F30002268914202D2A168081AE060022F16D0DE
:102F400017E02068A8B9A06800F02CFE0646002013
:102F5000A0600EE06068FDF75EFA216C60680844CE
:102F60006060A168884204D32068606001E005B118
:102F70006D1E6D1CA5633046BDE8F08110B504469A
:102F800090F8610058B101280CD002280FD05020D1
:102F900080F31188BFF34F8FBFF36F8FFEE7206B75
:102FA00000F03CFA2046BDE8104000F037BA10BDF2
:102FB00010484FF47051420706D0C01D0D4920F053
:102FC0000700411AC1F570510B4A00230144C2E9C0
:102FD00000030839183A21F0070111604B600B60BB
:102FE0000B1AC0E9001393604FF00040536050612A
:102FF000704700000806002094000020144E154C75
:10300000A6F1C8074FF08058DFF84C9012E000BFDF
:1030100000F0D0F9F068C568281D00F07BF9A068C1
:10302000401EA0606068401E606000F0E3F9284622
:10303000FFF7A4FF60680028EAD138680128F9D9B1
:10304000C9F80080BFF34F8FBFF36F8FF2E7000026
:10305000E00500204000002004ED00E00346009859
:1030600029B10260C0E90F31012100F0A1BB00606D
:10307000F8E72DE9F0479A46DDE9098481466FF0CB
:103080000303206B03EB82021044089E20F0070725
:10309000780707D0502080F31188BFF34F8FBFF31C
:1030A0006F8FFEE7002561B1002023180A5C83F8CA
:1030B00034200A5C12B1401C1E28F6D384F851500B
:1030C00001E084F83450072E00D30626E662C4E9F6
:1030D0001565201D00F047F904F1180000F043F9D0
:1030E0002461C6F107006462A061E56584F8605060
:1030F00052464946384600F0F7F82060B8F1000F14
:1031000001D0C8F80040BDE8F087000030B5114993
:1031100000E011460A688242FBD34B685C18844287
:1031200003D1406818444860084643681C1894421C
:1031300009D1084C183C2468A24209D052681A44AC
:1031400042600A6812680260814200D0086030BDA7
:103150000460F9E7940000200648416B096829B132
:10316000416BC968C9684968816270474FF0FF3197
:10317000FAE700004000002008484068401C4FF07B
:10318000500080F3118804D0BFF34F8FBFF36F8FCF
:10319000FEE7BFF34F8FBFF36F8FFEE79C00002069
:1031A0002DE9F041044600F005F994F9455004F189
:1031B000240609E0606A48B1304600F03FFD08B1DE
:1031C00000F09EF96D1E6DB2002DF3DC4FF0FF365E
:1031D00084F8456000F00EF900F0ECF894F94450E2
:1031E00004F1100709E0206948B1384600F026FDD7
:1031F00008B100F085F96D1E6DB2002DF3DC84F886
:103200004460BDE8F04100F0F5B800002DE9F04160
:103210000546002700F0C8F9324E306808B9FFF7BC
:10322000C7FE706905424ED1C5B3083568070ED098
:1032300005F00700C0F108000544680707D05020DA
:1032400080F31188BFF34F8FBFF36F8FFEE72DB36D
:103250007068854237D82348183001460C6801E071
:1032600020460C466168A94202D221680029F7D1A4
:1032700031688C4227D00768216801606068083790
:10328000411B10290FD96019420708D0502080F344
:103290001188BFF34F8FBFF36F8FFEE713E04160DC
:1032A0006560FFF733FF61687068401A7060B2684C
:1032B000904200D2B060706901430020C4E900016F
:1032C000F068401CF06000F0F3FC780707D0502055
:1032D00080F31188BFF34F8FBFF36F8FFEE738463F
:1032E000BDE8F0817C00002010B5031F4FF0807412
:1032F0001C601B1F21F001011960191F044B0B609A
:1033000014390A60091F6FF0020244380A6010BDC8
:1033100079310008D0E9013201699A60D0E90123CE
:103320005A604A68824201D182684A600022026182
:103330000868401E0860086870470000034B03607F
:1033400003F164000860802010607047A80000202E
:1033500000F108014FF0FF32C0E90112C1600161C4
:1033600000210160704700210161704730B50B6892
:103370005A1C02D000F1080202E0026904E0224671
:10338000546825689D42FAD953684B6099608A60F9
:10339000516008610168491C016030BD42684A60A3
:1033A00093688B6093685960916008610168491C5B
:1033B00001607047502080F31188BFF34F8FBFF337
:1033C0006F8F0A494868401C486001280CD10848A2
:1033D000006810F0FF0F07D0502080F31188BFF372
:1033E0004F8FBFF36F8FFEE7704700009C000020F7
:1033F00004ED00E00849486828B1401E486001D14A
:1034000080F311887047502080F31188BFF34F8FED
:10341000BFF36F8FFEE700009C00002070B500280E
:103420002AD0164DA0F1080460686969084207D1E6
:10343000502080F31188BFF34F8FBFF36F8FFEE7EB
:1034400022683AB1502080F31188BFF34F8FBFF349
:103450006F8FFEE78843606000F0A6F860686968D7
:10346000084468602046FFF751FE2869401C286127
:10347000BDE8704000F01CBC70BD00007C00002066
:103480004FF0E02000210161816105494FF47A721B
:103490000968B1FBF2F1491E4161072101617047E2
:1034A0003C00002010B5020014D00F48006B38B16A
:1034B000502080F31188BFF34F8FBFF36F8FFEE76B
:1034C00000F072F800211046FFF782FC00F0F0FBDC
:1034D000002807D105494FF080500860BFF34F8F97
:1034E000BFF36F8F10BD00004000002004ED00E02E
:1034F00002490A6A0260C9684160704740000020C2
:1035000001490120C86170474000002010B50C46F9
:1035100050B1094909681831FFF728FF2046BDE876
:1035200010400121FFF754BC502080F31188BFF3F5
:103530004F8FBFF36F8FFEE74000002010B586B0BD
:103540000024039405AA04A903A80494FFF7F6FE37
:10355000DDE903010094CDE9011000230EA110481C
:10356000059A00F080FA0F490028C86211D0502057
:1035700080F31188BFF34F8FBFF36F8F4FF0FF3091
:10358000886201204861CC6006B0BDE8104000F0C0
:1035900041B806B010BD000049444C450000000091
:1035A000FD2F0008400000200248016B491C016308
:1035B00070470000400000201448016B11B1012148
:1035C000C16170470021C1610169B1FA81F1C1F1A6
:1035D0001F0101EB81020E4951F822306BB101EB62
:1035E000820101F108034A6852684A609A4201D197
:1035F00052684A60D16801607047502080F311889A
:10360000BFF34F8FBFF36F8FFEE700004000002035
:10361000180500201CB537480168374A914207D188
:10362000502080F31188BFF34F8FBFF36F8FFEE7F9
:1036300000683149491E884207D1502080F3118823
:10364000BFF34F8FBFF36F8FFEE72C4908780190CF
:10365000FF20087008788DF800009DF800009DF8A4
:10366000002000F0F000904207D0502080F3118835
:10367000BFF34F8FBFF36F8FFEE79DF80000204C24
:1036800000F0500020700720A06005E09DF80020A9
:1036900052008DF80020401E9DF800201206F5D43F
:1036A000A060032807D0502080F31188BFF34F8F0C
:1036B000BFF36F8FFEE74FF44070A0600198087071
:1036C0000C482030016841F470010160016841F04C
:1036D00070410160FFF7D4FE00206060FCF7C8FD78
:1036E0000848016841F040410160FCF7ADFD002051
:1036F0001CBD000000ED00E071C20F4100E400E0DD
:103700009C00002034EF00E0F8B517460E46050097
:1037100013D005FB06F04830FFF778FD04000AD00F
:10372000002084F8460004F148023B463146284612
:103730000094FFF793FC2046F8BD502080F31188D9
:10374000BFF34F8FBFF36F8FFEE738B5049D18B1FD
:1037500053B1CAB181B120E0502080F31188BFF38A
:103760004F8FBFF36F8FFEE7502080F31188BFF3B8
:103770004F8FBFF36F8FFEE7502080F31188BFF3A8
:103780004F8FBFF36F8FFEE739B1502080F3118860
:10379000BFF34F8FBFF36F8FFEE748241C46012312
:1037A00084F846302B460094FFF758FC204638BD7D
:1037B00070B50D46040025D0FFF7FCFDD4E90F20BD
:1037C000216802FB0011A1600021A16321686160F2
:1037D0000A46D4E90F01401E00FB0121E1602146A9
:1037E0004FF0FF3001F8440F487004F110008DB124
:1037F000FFF7AEFD04F12400FFF7AAFDFFF7FAFD85
:10380000012070BD502080F31188BFF34F8FBFF3AC
:103810006F8FFEE721690029F0D000F00FFA002831
:10382000ECD004494FF080500860BFF34F8FBFF3D6
:103830006F8FE3E704ED00E02DE9FF4782B01D46FE
:103840008A464FF00008040003D0BAF1000F08D0F8
:1038500011E0502080F31188BFF34F8FBFF36F8FBB
:10386000FEE7206C38B1502080F31188BFF34F8FF2
:10387000BFF36F8FFEE7022D0AD1E06B012807D05E
:10388000502080F31188BFF34F8FBFF36F8FFEE797
:1038900000F014F93F4F4FF000094FF0805648B93F
:1038A000049838B1502080F31188BFF34F8FBFF3D5
:1038B0006F8FFEE7FFF77EFDA06BE16B884207D3B9
:1038C000022D05D00498D0B1B8F1000F1AD01EE037
:1038D0002A4651462046FFF71BFB616A19B104F1E5
:1038E000240000F0ABF920B13E60BFF34F8FBFF36F
:1038F0006F8FFFF77FFD012006B0BDE8F087FFF76F
:1039000079FD22E06846FFF7F3FD4FF00108FFF76D
:1039100071FDFFF749FEFFF74DFD94F94400401C8F
:1039200001D184F8449094F94500401C01D184F8F9
:103930004590FFF75FFD04A9684600F02DF830B10F
:103940002046FFF72DFC00F0B3F90020D4E7FFF785
:1039500031FDA06BE16B884213D1FFF74BFD04F101
:1039600010000499FFF7D2FD2046FFF719FC00F084
:103970009FF900289ED13E60BFF34F8FBFF36F8F3A
:1039800098E7FFF737FD2046FFF70AFC00F090F9B3
:1039900090E7000004ED00E02DE9F0410C46050041
:1039A00011D0C4B1FFF706FD174BDA686E682068C6
:1039B000911B471C17D02F681B6A9F4219D0964253
:1039C00017D8012410E0502080F31188BFF34F8FE7
:1039D000BFF36F8FFEE7502080F31188BFF34F8F46
:1039E000BFF36F8FFEE70024FFF704FD2046BDE81C
:1039F000F081884205D9401A20602846FFF778FDFB
:103A0000F1E700202060DCE7400000202DE9FF5FA7
:103A10008346DDE90E87994616468A469000FFF7F1
:103A2000F5FB05001CD06420FFF7F0FB040014D068
:103A30000020256384F86100CDE90240CDE90087CC
:103A40004B46324651465846FFF713FB2046FFF7D8
:103A5000F7F9012004B0BDE8F09F2846FFF7DEFC2F
:103A60004FF0FF30F6E7F0B585B0DDE90B640A9D55
:103A7000A6B1DCB1642700972663022684F8616052
:103A8000002604AFCDE90246CDE90057FFF7F1FA71
:103A90002046FFF7D5F9049805B0F0BD502080F31B
:103AA0001188BFF34F8FBFF36F8FFEE7502080F375
:103AB0001188BFF34F8FBFF36F8FFEE70548416951
:103AC00019B1006B18B10020704701207047022027
:103AD00070470000400000202DE9F0412F4C0026E7
:103AE000206B28B1A069401CA0613046BDE8F08180
:103AF000E5686D1CE56013D1606B006838B150203B
:103B000080F31188BFF34F8FBFF36F8FFEE7606BB9
:103B1000A16B6163A063206A401C2062FFF71CFB5D
:103B2000A06ADFF87C80854209D3606B0068A0B191
:103B3000606BC068C7687868854211D2A06220684F
:103B4000C06A00EB800158F82100012800D9012645
:103B5000E0690028C9D00126C7E74FF0FF30EDE744
:103B6000381DFFF7D7FBB86A18B107F11800FFF747
:103B7000D1FBF96A0120226988401043206101EBE2
:103B8000810108EB8100391DFFF708FCF86A216804
:103B9000C96A8842C9D30126C7E700004000002057
:103BA0001805002070B504004FF0000140D0214DF1
:103BB0002868844207D0502080F31188BFF34F8FCC
:103BC000BFF36F8FFEE7A06D38B1401EA065636D37
:103BD000E26A9A422CD040B12AE0502080F311884A
:103BE000BFF34F8FBFF36F8FFEE7201DFFF792FBF0
:103BF000114A012150B9E06A00EB800352F82330EA
:103C000023B92B6901FA00F083432B61606DE062F8
:103C1000C0F10700A061E06A2B6981401943296166
:103C200000EB800002EB8000211DFFF7B7FB0121B4
:103C3000084670BD40000020180500202DE9F04125
:103C4000C068C468ACB104F118000746FFF762FB16
:103C5000154D286B0126A0B139461448FFF79EFB8D
:103C6000E06A2968C96A88421CD90120EE61BDE872
:103C7000F081502080F31188BFF34F8FBFF36F8F17
:103C8000FEE7201DFFF746FBE16A2A6906FA01F00C
:103C90001043286101EB81000449B43901EB800035
:103CA000211DDBE70020E2E740000020CC050020DA
:103CB0002DE9F0472C4D00242746286B38B1FFF73B
:103CC00079FB286B401E2863286B40B146E05020EA
:103CD00080F31188BFF34F8FBFF36F8FFEE7A968A2
:103CE000224E0120D1B3A6F1B40980463068E8B174
:103CF000F068C46804F11800FFF70CFB201DFFF703
:103D000009FBE06A2A6908FA00F11143296100EB16
:103D1000800109EB8100211DFFF740FBE06A296863
:103D2000C96A8842E2D3C5F81C80DFE70CB1FFF70F
:103D300013FAAC6944B14646FFF7CEFE00B1EE611E
:103D4000641EF9D10020A861E86938B1084901274B
:103D500038070860BFF34F8FBFF36F8FFFF74AFB41
:103D60003846BDE8F087000040000020CC05002068
:103D700004ED00E04FF04070E1EE100A70470000E3
:103D8000E03E00083D250008FDFF000000000000A7
:103D9000800000000000000000000000C83E000895
:103DA0000D250008FDFF000000000000800000005D
:103DB0000000000000000000EC3E00085125000853
:103DC000FDFF000000000000800000000000000077
:103DD00000000000143F000883250008FDFF0000DC
:103DE0000000000080000000000000000000000053
:103DF000B03E000801250008FDFF000000000000A3
:103E0000800000000000000000000000D43E000818
:103E100029250008FDFF00000000000080000000D0
:103E20000000000000000000043F000835250008E5
:103E3000FDFF000000000000800000000000000006
:103E400000000000BC3E000849250008FDFF0000FE
:103E500000000000800000000000000000000000E2
:103E6000F83E00087D250008FDFF0000000000006E
:103E7000800000000000000000000000243F000857
:103E80005D250008FDFF000000000000800000002C
:103E90000000000000000000000000000000000022
:103EA00001020304060708090000000001020304E0
:103EB00042333935305F5461736B0000564F4641D1
:103EC0005F5461736B0000004C45445F5461736B39
:103ED000000000005049445F5461736B0000000013
:103EE0005057525F5461736B000000006C6971752C
:103EF00069645F5461736B00766F6963655F5461D9
:103F0000736B00005049445F7072696E74665F5451
:103F100061736B0077617465725F70756D705F546B
:103F200061736B00736572766F6D6F746F725F543F
:103F300061736B00543F000800000020A8000000DF
:103F4000C4010008FC3F0008A8000020C047000092
:103F5000E001000800000000000000000000000078
:103F60000000000000000000000000000000000051
:103F70000000000000000000000000000000000041
:103F80000000000001000000100000000000000020
:103F90000024F40000000000000000000000000009
:103FA0000000000000000000000000000000000011
:103FB0000000000000000000000000000000000001
:103FC00000000000000000000000000000000000F1
:103FD00000000000000000000000000000000000E1
:103FE00000000000000000000000000000000000D1
:0C3FF00000000000AAAAAAAA000000001D
:040000050800018965
:00000001FF
